{
  "contractName": "todoList",
  "abi": [
    {
      "constant": true,
      "inputs": [],
      "name": "taskCount",
      "outputs": [
        {
          "internalType": "uint256",
          "name": "",
          "type": "uint256"
        }
      ],
      "payable": false,
      "stateMutability": "view",
      "type": "function"
    }
  ],
  "bytecode": "0x608060405260008055348015601357600080fd5b506080806100226000396000f3fe6080604052348015600f57600080fd5b506004361060285760003560e01c8063b6cb58a514602d575b600080fd5b60336045565b60408051918252519081900360200190f35b6000548156fea265627a7a72315820874d17c121a8e638b4694d2f6ddbc95e5f8649924e888309cc3f097326531e7b64736f6c63430005100032",
  "source": "pragma solidity ^0.5.0;\r\n\r\ncontract todoList{\r\n    uint public taskCount= 0;\r\n}",
  "sourcePath": "C:\\Users\\Administrator\\Desktop\\Blockchain-todo-list\\contracts\\todoList.sol",
  "compiler": {
    "name": "solc",
    "version": "0.5.16+commit.9c3226ce.Emscripten.clang"
  },
  "schemaVersion": "3.4.3",
  "updatedAt": "2021-08-31T17:59:34.231Z",
  "networkType": "ethereum",
  "devdoc": {
    "methods": {}
  },
  "userdoc": {
    "methods": {}
  }
}